{
  "contractName": "BlockDesk",
  "abi": [
    {
      "inputs": [],
      "stateMutability": "nonpayable",
      "type": "constructor"
    },
    {
      "anonymous": false,
      "inputs": [
        {
          "indexed": true,
          "internalType": "uint256",
          "name": "ticketId",
          "type": "uint256"
        },
        {
          "indexed": true,
          "internalType": "uint256",
          "name": "commentId",
          "type": "uint256"
        },
        {
          "indexed": true,
          "internalType": "address",
          "name": "author",
          "type": "address"
        }
      ],
      "name": "CommentAdded",
      "type": "event"
    },
    {
      "anonymous": false,
      "inputs": [
        {
          "indexed": true,
          "internalType": "uint256",
          "name": "ticketId",
          "type": "uint256"
        },
        {
          "indexed": false,
          "internalType": "enum BlockDesk.TicketStatus",
          "name": "status",
          "type": "uint8"
        },
        {
          "indexed": true,
          "internalType": "address",
          "name": "updater",
          "type": "address"
        }
      ],
      "name": "StatusUpdated",
      "type": "event"
    },
    {
      "anonymous": false,
      "inputs": [
        {
          "indexed": true,
          "internalType": "uint256",
          "name": "ticketId",
          "type": "uint256"
        },
        {
          "indexed": true,
          "internalType": "address",
          "name": "assignee",
          "type": "address"
        },
        {
          "indexed": true,
          "internalType": "address",
          "name": "assigner",
          "type": "address"
        }
      ],
      "name": "TicketAssigned",
      "type": "event"
    },
    {
      "anonymous": false,
      "inputs": [
        {
          "indexed": true,
          "internalType": "uint256",
          "name": "ticketId",
          "type": "uint256"
        },
        {
          "indexed": true,
          "internalType": "address",
          "name": "creator",
          "type": "address"
        },
        {
          "indexed": false,
          "internalType": "string",
          "name": "title",
          "type": "string"
        },
        {
          "indexed": false,
          "internalType": "string",
          "name": "description",
          "type": "string"
        },
        {
          "indexed": false,
          "internalType": "string",
          "name": "attachmentHash",
          "type": "string"
        }
      ],
      "name": "TicketCreated",
      "type": "event"
    },
    {
      "anonymous": false,
      "inputs": [
        {
          "indexed": true,
          "internalType": "uint256",
          "name": "ticketId",
          "type": "uint256"
        },
        {
          "indexed": true,
          "internalType": "address",
          "name": "reopener",
          "type": "address"
        }
      ],
      "name": "TicketReopened",
      "type": "event"
    },
    {
      "inputs": [],
      "name": "nextCommentId",
      "outputs": [
        {
          "internalType": "uint256",
          "name": "",
          "type": "uint256"
        }
      ],
      "stateMutability": "view",
      "type": "function",
      "constant": true
    },
    {
      "inputs": [],
      "name": "nextTicketId",
      "outputs": [
        {
          "internalType": "uint256",
          "name": "",
          "type": "uint256"
        }
      ],
      "stateMutability": "view",
      "type": "function",
      "constant": true
    },
    {
      "inputs": [
        {
          "internalType": "uint256",
          "name": "",
          "type": "uint256"
        },
        {
          "internalType": "uint256",
          "name": "",
          "type": "uint256"
        }
      ],
      "name": "ticketComments",
      "outputs": [
        {
          "internalType": "uint256",
          "name": "id",
          "type": "uint256"
        },
        {
          "internalType": "uint256",
          "name": "ticketId",
          "type": "uint256"
        },
        {
          "internalType": "address",
          "name": "author",
          "type": "address"
        },
        {
          "internalType": "string",
          "name": "content",
          "type": "string"
        },
        {
          "internalType": "uint256",
          "name": "createdAt",
          "type": "uint256"
        }
      ],
      "stateMutability": "view",
      "type": "function",
      "constant": true
    },
    {
      "inputs": [
        {
          "internalType": "uint256",
          "name": "",
          "type": "uint256"
        }
      ],
      "name": "tickets",
      "outputs": [
        {
          "internalType": "address",
          "name": "creator",
          "type": "address"
        },
        {
          "internalType": "uint64",
          "name": "createdAt",
          "type": "uint64"
        },
        {
          "internalType": "enum BlockDesk.TicketStatus",
          "name": "status",
          "type": "uint8"
        },
        {
          "internalType": "address",
          "name": "assignedTo",
          "type": "address"
        },
        {
          "internalType": "uint64",
          "name": "updatedAt",
          "type": "uint64"
        },
        {
          "internalType": "uint256",
          "name": "id",
          "type": "uint256"
        }
      ],
      "stateMutability": "view",
      "type": "function",
      "constant": true
    },
    {
      "inputs": [
        {
          "internalType": "address",
          "name": "",
          "type": "address"
        }
      ],
      "name": "userRoles",
      "outputs": [
        {
          "internalType": "enum BlockDesk.UserRole",
          "name": "",
          "type": "uint8"
        }
      ],
      "stateMutability": "view",
      "type": "function",
      "constant": true
    },
    {
      "inputs": [
        {
          "internalType": "string",
          "name": "title",
          "type": "string"
        },
        {
          "internalType": "string",
          "name": "description",
          "type": "string"
        },
        {
          "internalType": "string",
          "name": "attachmentHash",
          "type": "string"
        }
      ],
      "name": "createTicket",
      "outputs": [
        {
          "internalType": "uint256",
          "name": "",
          "type": "uint256"
        }
      ],
      "stateMutability": "nonpayable",
      "type": "function"
    },
    {
      "inputs": [
        {
          "internalType": "uint256",
          "name": "ticketId",
          "type": "uint256"
        },
        {
          "internalType": "enum BlockDesk.TicketStatus",
          "name": "status",
          "type": "uint8"
        }
      ],
      "name": "updateStatus",
      "outputs": [],
      "stateMutability": "nonpayable",
      "type": "function"
    },
    {
      "inputs": [
        {
          "internalType": "uint256",
          "name": "ticketId",
          "type": "uint256"
        },
        {
          "internalType": "address",
          "name": "assignee",
          "type": "address"
        }
      ],
      "name": "assignTicket",
      "outputs": [],
      "stateMutability": "nonpayable",
      "type": "function"
    },
    {
      "inputs": [
        {
          "internalType": "uint256",
          "name": "ticketId",
          "type": "uint256"
        }
      ],
      "name": "resolveTicket",
      "outputs": [],
      "stateMutability": "nonpayable",
      "type": "function"
    },
    {
      "inputs": [
        {
          "internalType": "uint256",
          "name": "ticketId",
          "type": "uint256"
        }
      ],
      "name": "closeTicket",
      "outputs": [],
      "stateMutability": "nonpayable",
      "type": "function"
    },
    {
      "inputs": [
        {
          "internalType": "uint256",
          "name": "ticketId",
          "type": "uint256"
        }
      ],
      "name": "reopenTicket",
      "outputs": [],
      "stateMutability": "nonpayable",
      "type": "function"
    },
    {
      "inputs": [
        {
          "internalType": "uint256",
          "name": "ticketId",
          "type": "uint256"
        },
        {
          "internalType": "string",
          "name": "content",
          "type": "string"
        }
      ],
      "name": "addComment",
      "outputs": [],
      "stateMutability": "nonpayable",
      "type": "function"
    },
    {
      "inputs": [
        {
          "internalType": "uint256",
          "name": "ticketId",
          "type": "uint256"
        }
      ],
      "name": "getTicketComments",
      "outputs": [
        {
          "components": [
            {
              "internalType": "uint256",
              "name": "id",
              "type": "uint256"
            },
            {
              "internalType": "uint256",
              "name": "ticketId",
              "type": "uint256"
            },
            {
              "internalType": "address",
              "name": "author",
              "type": "address"
            },
            {
              "internalType": "string",
              "name": "content",
              "type": "string"
            },
            {
              "internalType": "uint256",
              "name": "createdAt",
              "type": "uint256"
            }
          ],
          "internalType": "struct BlockDesk.Comment[]",
          "name": "",
          "type": "tuple[]"
        }
      ],
      "stateMutability": "view",
      "type": "function",
      "constant": true
    },
    {
      "inputs": [
        {
          "internalType": "address",
          "name": "user",
          "type": "address"
        },
        {
          "internalType": "enum BlockDesk.UserRole",
          "name": "role",
          "type": "uint8"
        }
      ],
      "name": "setUserRole",
      "outputs": [],
      "stateMutability": "nonpayable",
      "type": "function"
    },
    {
      "inputs": [
        {
          "internalType": "uint256",
          "name": "ticketId",
          "type": "uint256"
        }
      ],
      "name": "getTicket",
      "outputs": [
        {
          "components": [
            {
              "internalType": "address",
              "name": "creator",
              "type": "address"
            },
            {
              "internalType": "uint64",
              "name": "createdAt",
              "type": "uint64"
            },
            {
              "internalType": "enum BlockDesk.TicketStatus",
              "name": "status",
              "type": "uint8"
            },
            {
              "internalType": "address",
              "name": "assignedTo",
              "type": "address"
            },
            {
              "internalType": "uint64",
              "name": "updatedAt",
              "type": "uint64"
            },
            {
              "internalType": "uint256",
              "name": "id",
              "type": "uint256"
            }
          ],
          "internalType": "struct BlockDesk.Ticket",
          "name": "",
          "type": "tuple"
        }
      ],
      "stateMutability": "view",
      "type": "function",
      "constant": true
    },
    {
      "inputs": [],
      "name": "getAllTickets",
      "outputs": [
        {
          "components": [
            {
              "internalType": "address",
              "name": "creator",
              "type": "address"
            },
            {
              "internalType": "uint64",
              "name": "createdAt",
              "type": "uint64"
            },
            {
              "internalType": "enum BlockDesk.TicketStatus",
              "name": "status",
              "type": "uint8"
            },
            {
              "internalType": "address",
              "name": "assignedTo",
              "type": "address"
            },
            {
              "internalType": "uint64",
              "name": "updatedAt",
              "type": "uint64"
            },
            {
              "internalType": "uint256",
              "name": "id",
              "type": "uint256"
            }
          ],
          "internalType": "struct BlockDesk.Ticket[]",
          "name": "",
          "type": "tuple[]"
        }
      ],
      "stateMutability": "view",
      "type": "function",
      "constant": true
    }
  ],
  "bytecode": "0x6080604052600160035560016004553480156200001b57600080fd5b5060018060003373ffffffffffffffffffffffffffffffffffffffff1673ffffffffffffffffffffffffffffffffffffffff16815260200190815260200160002060006101000a81548160ff021916908360018111156200008157620000806200008c565b5b0217905550620000bb565b7f4e487b7100000000000000000000000000000000000000000000000000000000600052602160045260246000fd5b612fe180620000cb6000396000f3fe608060405234801561001057600080fd5b50600436106101005760003560e01c806374d5e100116100975780639b60d0a5116100665780639b60d0a5146102c6578063a470b27d146102f6578063aa7e568314610312578063d0bdacbe1461032e57610100565b806374d5e1001461021657806378ef0c3f146102465780637dc379fa1461027a5780638d9ab05b146102aa57610100565b80633dc261f9116100d35780633dc261f91461017757806345d8c786146101a757806350b44712146101c35780636031a52f146101f857610100565b806303a696111461010557806303e96fe31461012157806320e14e491461013f5780633a1b3d311461015b575b600080fd5b61011f600480360381019061011a9190611e0e565b61034c565b005b610129610469565b604051610136919061203a565b60405180910390f35b61015960048036038101906101549190612088565b61069c565b005b610175600480360381019061017091906120da565b610873565b005b610191600480360381019061018c919061217f565b610b1f565b60405161019e9190612242565b60405180910390f35b6101c160048036038101906101bc9190612088565b610d5e565b005b6101dd60048036038101906101d89190612088565b610f35565b6040516101ef9695949392919061228a565b60405180910390f35b610200610fe6565b60405161020d9190612242565b60405180910390f35b610230600480360381019061022b91906122eb565b610fec565b60405161023d9190612360565b60405180910390f35b610260600480360381019061025b919061237b565b61100c565b60405161027195949392919061244b565b60405180910390f35b610294600480360381019061028f9190612088565b611107565b6040516102a19190612520565b60405180910390f35b6102c460048036038101906102bf919061253b565b6112e0565b005b6102e060048036038101906102db9190612088565b6115c9565b6040516102ed91906126fd565b60405180910390f35b610310600480360381019061030b9190612088565b611799565b005b61032c6004803603810190610327919061284f565b611aec565b005b610336611ce9565b6040516103439190612242565b60405180910390f35b60018081111561035f5761035e611eac565b5b600160003373ffffffffffffffffffffffffffffffffffffffff1673ffffffffffffffffffffffffffffffffffffffff16815260200190815260200160002060009054906101000a900460ff1660018111156103be576103bd611eac565b5b146103fe576040517f08c379a00000000000000000000000000000000000000000000000000000000081526004016103f5906128f7565b60405180910390fd5b80600160008473ffffffffffffffffffffffffffffffffffffffff1673ffffffffffffffffffffffffffffffffffffffff16815260200190815260200160002060006101000a81548160ff021916908360018111156104605761045f611eac565b5b02179055505050565b60606000600160035461047c9190612946565b905060008167ffffffffffffffff81111561049a57610499612724565b5b6040519080825280602002602001820160405280156104d357816020015b6104c0611cef565b8152602001906001900390816104b85790505b5090506000600190505b828111610693576000808281526020019081526020016000206040518060c00160405290816000820160009054906101000a900473ffffffffffffffffffffffffffffffffffffffff1673ffffffffffffffffffffffffffffffffffffffff1673ffffffffffffffffffffffffffffffffffffffff1681526020016000820160149054906101000a900467ffffffffffffffff1667ffffffffffffffff1667ffffffffffffffff16815260200160008201601c9054906101000a900460ff1660038111156105ae576105ad611eac565b5b60038111156105c0576105bf611eac565b5b81526020016001820160009054906101000a900473ffffffffffffffffffffffffffffffffffffffff1673ffffffffffffffffffffffffffffffffffffffff1673ffffffffffffffffffffffffffffffffffffffff1681526020016001820160149054906101000a900467ffffffffffffffff1667ffffffffffffffff1667ffffffffffffffff168152602001600282015481525050826001836106649190612946565b815181106106755761067461297a565b5b6020026020010181905250808061068b906129a9565b9150506104dd565b50809250505090565b6001808111156106af576106ae611eac565b5b600160003373ffffffffffffffffffffffffffffffffffffffff1673ffffffffffffffffffffffffffffffffffffffff16815260200190815260200160002060009054906101000a900460ff16600181111561070e5761070d611eac565b5b1461074e576040517f08c379a0000000000000000000000000000000000000000000000000000000008152600401610745906128f7565b60405180910390fd5b600080600083815260200190815260200160002060020154036107a6576040517f08c379a000000000000000000000000000000000000000000000000000000000815260040161079d90612a3d565b60405180910390fd5b6003600080838152602001908152602001600020600001601c6101000a81548160ff021916908360038111156107df576107de611eac565b5b02179055504260008083815260200190815260200160002060010160146101000a81548167ffffffffffffffff021916908367ffffffffffffffff1602179055503373ffffffffffffffffffffffffffffffffffffffff16817f16ad05ce3d778c4a2ba55f55814ad9f3e606fe0c042972def94655ed8e1c31cc60036040516108689190612a5d565b60405180910390a350565b600080600084815260200190815260200160002060020154036108cb576040517f08c379a00000000000000000000000000000000000000000000000000000000081526004016108c290612a3d565b60405180910390fd5b3373ffffffffffffffffffffffffffffffffffffffff1660008084815260200190815260200160002060000160009054906101000a900473ffffffffffffffffffffffffffffffffffffffff1673ffffffffffffffffffffffffffffffffffffffff16148061099a57503373ffffffffffffffffffffffffffffffffffffffff1660008084815260200190815260200160002060010160009054906101000a900473ffffffffffffffffffffffffffffffffffffffff1673ffffffffffffffffffffffffffffffffffffffff16145b80610a1457506001808111156109b3576109b2611eac565b5b600160003373ffffffffffffffffffffffffffffffffffffffff1673ffffffffffffffffffffffffffffffffffffffff16815260200190815260200160002060009054906101000a900460ff166001811115610a1257610a11611eac565b5b145b610a53576040517f08c379a0000000000000000000000000000000000000000000000000000000008152600401610a4a90612ac4565b60405180910390fd5b80600080848152602001908152602001600020600001601c6101000a81548160ff02191690836003811115610a8b57610a8a611eac565b5b02179055504260008084815260200190815260200160002060010160146101000a81548167ffffffffffffffff021916908367ffffffffffffffff1602179055503373ffffffffffffffffffffffffffffffffffffffff16827f16ad05ce3d778c4a2ba55f55814ad9f3e606fe0c042972def94655ed8e1c31cc83604051610b139190612a5d565b60405180910390a35050565b60008060036000815480929190610b35906129a9565b9190505590506040518060c001604052803373ffffffffffffffffffffffffffffffffffffffff1681526020014267ffffffffffffffff16815260200160006003811115610b8657610b85611eac565b5b8152602001600073ffffffffffffffffffffffffffffffffffffffff1681526020014267ffffffffffffffff1681526020018281525060008083815260200190815260200160002060008201518160000160006101000a81548173ffffffffffffffffffffffffffffffffffffffff021916908373ffffffffffffffffffffffffffffffffffffffff16021790555060208201518160000160146101000a81548167ffffffffffffffff021916908367ffffffffffffffff160217905550604082015181600001601c6101000a81548160ff02191690836003811115610c6f57610c6e611eac565b5b021790555060608201518160010160006101000a81548173ffffffffffffffffffffffffffffffffffffffff021916908373ffffffffffffffffffffffffffffffffffffffff16021790555060808201518160010160146101000a81548167ffffffffffffffff021916908367ffffffffffffffff16021790555060a082015181600201559050503373ffffffffffffffffffffffffffffffffffffffff16817fb511014fbb834f2bb07ec2dac54e09eeeacf093fa4eaadfa9b5f8a88fd22002a8a8a8a8a8a8a604051610d4896959493929190612b11565b60405180910390a3809150509695505050505050565b600180811115610d7157610d70611eac565b5b600160003373ffffffffffffffffffffffffffffffffffffffff1673ffffffffffffffffffffffffffffffffffffffff16815260200190815260200160002060009054906101000a900460ff166001811115610dd057610dcf611eac565b5b14610e10576040517f08c379a0000000000000000000000000000000000000000000000000000000008152600401610e07906128f7565b60405180910390fd5b60008060008381526020019081526020016000206002015403610e68576040517f08c379a0000000000000000000000000000000000000000000000000000000008152600401610e5f90612a3d565b60405180910390fd5b6002600080838152602001908152602001600020600001601c6101000a81548160ff02191690836003811115610ea157610ea0611eac565b5b02179055504260008083815260200190815260200160002060010160146101000a81548167ffffffffffffffff021916908367ffffffffffffffff1602179055503373ffffffffffffffffffffffffffffffffffffffff16817f16ad05ce3d778c4a2ba55f55814ad9f3e606fe0c042972def94655ed8e1c31cc6002604051610f2a9190612a5d565b60405180910390a350565b60006020528060005260406000206000915090508060000160009054906101000a900473ffffffffffffffffffffffffffffffffffffffff16908060000160149054906101000a900467ffffffffffffffff169080600001601c9054906101000a900460ff16908060010160009054906101000a900473ffffffffffffffffffffffffffffffffffffffff16908060010160149054906101000a900467ffffffffffffffff16908060020154905086565b60035481565b60016020528060005260406000206000915054906101000a900460ff1681565b6002602052816000526040600020818154811061102857600080fd5b9060005260206000209060050201600091509150508060000154908060010154908060020160009054906101000a900473ffffffffffffffffffffffffffffffffffffffff169080600301805461107e90612b92565b80601f01602080910402602001604051908101604052809291908181526020018280546110aa90612b92565b80156110f75780601f106110cc576101008083540402835291602001916110f7565b820191906000526020600020905b8154815290600101906020018083116110da57829003601f168201915b5050505050908060040154905085565b61110f611cef565b60008060008481526020019081526020016000206002015403611167576040517f08c379a000000000000000000000000000000000000000000000000000000000815260040161115e90612a3d565b60405180910390fd5b6000808381526020019081526020016000206040518060c00160405290816000820160009054906101000a900473ffffffffffffffffffffffffffffffffffffffff1673ffffffffffffffffffffffffffffffffffffffff1673ffffffffffffffffffffffffffffffffffffffff1681526020016000820160149054906101000a900467ffffffffffffffff1667ffffffffffffffff1667ffffffffffffffff16815260200160008201601c9054906101000a900460ff16600381111561123157611230611eac565b5b600381111561124357611242611eac565b5b81526020016001820160009054906101000a900473ffffffffffffffffffffffffffffffffffffffff1673ffffffffffffffffffffffffffffffffffffffff1673ffffffffffffffffffffffffffffffffffffffff1681526020016001820160149054906101000a900467ffffffffffffffff1667ffffffffffffffff1667ffffffffffffffff1681526020016002820154815250509050919050565b6001808111156112f3576112f2611eac565b5b600160003373ffffffffffffffffffffffffffffffffffffffff1673ffffffffffffffffffffffffffffffffffffffff16815260200190815260200160002060009054906101000a900460ff16600181111561135257611351611eac565b5b14611392576040517f08c379a0000000000000000000000000000000000000000000000000000000008152600401611389906128f7565b60405180910390fd5b600080600084815260200190815260200160002060020154036113ea576040517f08c379a00000000000000000000000000000000000000000000000000000000081526004016113e190612a3d565b60405180910390fd5b6001808111156113fd576113fc611eac565b5b600160008373ffffffffffffffffffffffffffffffffffffffff1673ffffffffffffffffffffffffffffffffffffffff16815260200190815260200160002060009054906101000a900460ff16600181111561145c5761145b611eac565b5b1461149c576040517f08c379a000000000000000000000000000000000000000000000000000000000815260040161149390612c0f565b60405180910390fd5b8060008084815260200190815260200160002060010160006101000a81548173ffffffffffffffffffffffffffffffffffffffff021916908373ffffffffffffffffffffffffffffffffffffffff1602179055506001600080848152602001908152602001600020600001601c6101000a81548160ff0219169083600381111561152957611528611eac565b5b02179055504260008084815260200190815260200160002060010160146101000a81548167ffffffffffffffff021916908367ffffffffffffffff1602179055503373ffffffffffffffffffffffffffffffffffffffff168173ffffffffffffffffffffffffffffffffffffffff16837f8d3c7befb49ab350236403d9b04285dc4e50be6876ec1e0998ff7363e4e388b260405160405180910390a45050565b606060008060008481526020019081526020016000206002015403611623576040517f08c379a000000000000000000000000000000000000000000000000000000000815260040161161a90612a3d565b60405180910390fd5b60026000838152602001908152602001600020805480602002602001604051908101604052809291908181526020016000905b8282101561178e57838290600052602060002090600502016040518060a001604052908160008201548152602001600182015481526020016002820160009054906101000a900473ffffffffffffffffffffffffffffffffffffffff1673ffffffffffffffffffffffffffffffffffffffff1673ffffffffffffffffffffffffffffffffffffffff1681526020016003820180546116f390612b92565b80601f016020809104026020016040519081016040528092919081815260200182805461171f90612b92565b801561176c5780601f106117415761010080835404028352916020019161176c565b820191906000526020600020905b81548152906001019060200180831161174f57829003601f168201915b5050505050815260200160048201548152505081526020019060010190611656565b505050509050919050565b6001808111156117ac576117ab611eac565b5b600160003373ffffffffffffffffffffffffffffffffffffffff1673ffffffffffffffffffffffffffffffffffffffff16815260200190815260200160002060009054906101000a900460ff16600181111561180b5761180a611eac565b5b1461184b576040517f08c379a0000000000000000000000000000000000000000000000000000000008152600401611842906128f7565b60405180910390fd5b600080600083815260200190815260200160002060020154036118a3576040517f08c379a000000000000000000000000000000000000000000000000000000000815260040161189a90612a3d565b60405180910390fd5b6003808111156118b6576118b5611eac565b5b600080838152602001908152602001600020600001601c9054906101000a900460ff1660038111156118eb576118ea611eac565b5b148061193d57506002600381111561190657611905611eac565b5b600080838152602001908152602001600020600001601c9054906101000a900460ff16600381111561193b5761193a611eac565b5b145b61197c576040517f08c379a000000000000000000000000000000000000000000000000000000000815260040161197390612ca1565b60405180910390fd5b6001600080838152602001908152602001600020600001601c6101000a81548160ff021916908360038111156119b5576119b4611eac565b5b02179055503360008083815260200190815260200160002060010160006101000a81548173ffffffffffffffffffffffffffffffffffffffff021916908373ffffffffffffffffffffffffffffffffffffffff1602179055504260008083815260200190815260200160002060010160146101000a81548167ffffffffffffffff021916908367ffffffffffffffff1602179055503373ffffffffffffffffffffffffffffffffffffffff16817f0b5bde8e088845f0c1afd37533c5052aefd3dbc67016653d9ea6e6753e2557f760405160405180910390a33373ffffffffffffffffffffffffffffffffffffffff163373ffffffffffffffffffffffffffffffffffffffff16827f8d3c7befb49ab350236403d9b04285dc4e50be6876ec1e0998ff7363e4e388b260405160405180910390a450565b60008060008481526020019081526020016000206002015403611b44576040517f08c379a0000000000000000000000000000000000000000000000000000000008152600401611b3b90612a3d565b60405180910390fd5b6000815111611b88576040517f08c379a0000000000000000000000000000000000000000000000000000000008152600401611b7f90612d0d565b60405180910390fd5b600060046000815480929190611b9d906129a9565b91905055905060006040518060a001604052808381526020018581526020013373ffffffffffffffffffffffffffffffffffffffff16815260200184815260200142815250905060026000858152602001908152602001600020819080600181540180825580915050600190039060005260206000209060050201600090919091909150600082015181600001556020820151816001015560408201518160020160006101000a81548173ffffffffffffffffffffffffffffffffffffffff021916908373ffffffffffffffffffffffffffffffffffffffff1602179055506060820151816003019081611c919190612ed9565b506080820151816004015550503373ffffffffffffffffffffffffffffffffffffffff1682857fdb54cde47150062529bc4f2e10c2493c8ae39bc079c9c24f9e365c135098d4bb60405160405180910390a450505050565b60045481565b6040518060c00160405280600073ffffffffffffffffffffffffffffffffffffffff168152602001600067ffffffffffffffff16815260200160006003811115611d3c57611d3b611eac565b5b8152602001600073ffffffffffffffffffffffffffffffffffffffff168152602001600067ffffffffffffffff168152602001600081525090565b6000604051905090565b600080fd5b600080fd5b600073ffffffffffffffffffffffffffffffffffffffff82169050919050565b6000611db682611d8b565b9050919050565b611dc681611dab565b8114611dd157600080fd5b50565b600081359050611de381611dbd565b92915050565b60028110611df657600080fd5b50565b600081359050611e0881611de9565b92915050565b60008060408385031215611e2557611e24611d81565b5b6000611e3385828601611dd4565b9250506020611e4485828601611df9565b9150509250929050565b600081519050919050565b600082825260208201905092915050565b6000819050602082019050919050565b611e8381611dab565b82525050565b600067ffffffffffffffff82169050919050565b611ea681611e89565b82525050565b7f4e487b7100000000000000000000000000000000000000000000000000000000600052602160045260246000fd5b60048110611eec57611eeb611eac565b5b50565b6000819050611efd82611edb565b919050565b6000611f0d82611eef565b9050919050565b611f1d81611f02565b82525050565b6000819050919050565b611f3681611f23565b82525050565b60c082016000820151611f526000850182611e7a565b506020820151611f656020850182611e9d565b506040820151611f786040850182611f14565b506060820151611f8b6060850182611e7a565b506080820151611f9e6080850182611e9d565b5060a0820151611fb160a0850182611f2d565b50505050565b6000611fc38383611f3c565b60c08301905092915050565b6000602082019050919050565b6000611fe782611e4e565b611ff18185611e59565b9350611ffc83611e6a565b8060005b8381101561202d5781516120148882611fb7565b975061201f83611fcf565b925050600181019050612000565b5085935050505092915050565b600060208201905081810360008301526120548184611fdc565b905092915050565b61206581611f23565b811461207057600080fd5b50565b6000813590506120828161205c565b92915050565b60006020828403121561209e5761209d611d81565b5b60006120ac84828501612073565b91505092915050565b600481106120c257600080fd5b50565b6000813590506120d4816120b5565b92915050565b600080604083850312156120f1576120f0611d81565b5b60006120ff85828601612073565b9250506020612110858286016120c5565b9150509250929050565b600080fd5b600080fd5b600080fd5b60008083601f84011261213f5761213e61211a565b5b8235905067ffffffffffffffff81111561215c5761215b61211f565b5b60208301915083600182028301111561217857612177612124565b5b9250929050565b6000806000806000806060878903121561219c5761219b611d81565b5b600087013567ffffffffffffffff8111156121ba576121b9611d86565b5b6121c689828a01612129565b9650965050602087013567ffffffffffffffff8111156121e9576121e8611d86565b5b6121f589828a01612129565b9450945050604087013567ffffffffffffffff81111561221857612217611d86565b5b61222489828a01612129565b92509250509295509295509295565b61223c81611f23565b82525050565b60006020820190506122576000830184612233565b92915050565b61226681611dab565b82525050565b61227581611e89565b82525050565b61228481611f02565b82525050565b600060c08201905061229f600083018961225d565b6122ac602083018861226c565b6122b9604083018761227b565b6122c6606083018661225d565b6122d3608083018561226c565b6122e060a0830184612233565b979650505050505050565b60006020828403121561230157612300611d81565b5b600061230f84828501611dd4565b91505092915050565b6002811061232957612328611eac565b5b50565b600081905061233a82612318565b919050565b600061234a8261232c565b9050919050565b61235a8161233f565b82525050565b60006020820190506123756000830184612351565b92915050565b6000806040838503121561239257612391611d81565b5b60006123a085828601612073565b92505060206123b185828601612073565b9150509250929050565b600081519050919050565b600082825260208201905092915050565b60005b838110156123f55780820151818401526020810190506123da565b60008484015250505050565b6000601f19601f8301169050919050565b600061241d826123bb565b61242781856123c6565b93506124378185602086016123d7565b61244081612401565b840191505092915050565b600060a0820190506124606000830188612233565b61246d6020830187612233565b61247a604083018661225d565b818103606083015261248c8185612412565b905061249b6080830184612233565b9695505050505050565b60c0820160008201516124bb6000850182611e7a565b5060208201516124ce6020850182611e9d565b5060408201516124e16040850182611f14565b5060608201516124f46060850182611e7a565b5060808201516125076080850182611e9d565b5060a082015161251a60a0850182611f2d565b50505050565b600060c08201905061253560008301846124a5565b92915050565b6000806040838503121561255257612551611d81565b5b600061256085828601612073565b925050602061257185828601611dd4565b9150509250929050565b600081519050919050565b600082825260208201905092915050565b6000819050602082019050919050565b600082825260208201905092915050565b60006125c3826123bb565b6125cd81856125a7565b93506125dd8185602086016123d7565b6125e681612401565b840191505092915050565b600060a0830160008301516126096000860182611f2d565b50602083015161261c6020860182611f2d565b50604083015161262f6040860182611e7a565b506060830151848203606086015261264782826125b8565b915050608083015161265c6080860182611f2d565b508091505092915050565b600061267383836125f1565b905092915050565b6000602082019050919050565b60006126938261257b565b61269d8185612586565b9350836020820285016126af85612597565b8060005b858110156126eb57848403895281516126cc8582612667565b94506126d78361267b565b925060208a019950506001810190506126b3565b50829750879550505050505092915050565b600060208201905081810360008301526127178184612688565b905092915050565b600080fd5b7f4e487b7100000000000000000000000000000000000000000000000000000000600052604160045260246000fd5b61275c82612401565b810181811067ffffffffffffffff8211171561277b5761277a612724565b5b80604052505050565b600061278e611d77565b905061279a8282612753565b919050565b600067ffffffffffffffff8211156127ba576127b9612724565b5b6127c382612401565b9050602081019050919050565b82818337600083830152505050565b60006127f26127ed8461279f565b612784565b90508281526020810184848401111561280e5761280d61271f565b5b6128198482856127d0565b509392505050565b600082601f8301126128365761283561211a565b5b81356128468482602086016127df565b91505092915050565b6000806040838503121561286657612865611d81565b5b600061287485828601612073565b925050602083013567ffffffffffffffff81111561289557612894611d86565b5b6128a185828601612821565b9150509250929050565b7f4e6f7420617574686f72697a65643a204d616e61676572206f6e6c7900000000600082015250565b60006128e1601c836123c6565b91506128ec826128ab565b602082019050919050565b60006020820190508181036000830152612910816128d4565b9050919050565b7f4e487b7100000000000000000000000000000000000000000000000000000000600052601160045260246000fd5b600061295182611f23565b915061295c83611f23565b925082820390508181111561297457612973612917565b5b92915050565b7f4e487b7100000000000000000000000000000000000000000000000000000000600052603260045260246000fd5b60006129b482611f23565b91507fffffffffffffffffffffffffffffffffffffffffffffffffffffffffffffffff82036129e6576129e5612917565b5b600182019050919050565b7f5469636b657420646f6573206e6f742065786973740000000000000000000000600082015250565b6000612a276015836123c6565b9150612a32826129f1565b602082019050919050565b60006020820190508181036000830152612a5681612a1a565b9050919050565b6000602082019050612a72600083018461227b565b92915050565b7f4e6f7420617574686f72697a6564000000000000000000000000000000000000600082015250565b6000612aae600e836123c6565b9150612ab982612a78565b602082019050919050565b60006020820190508181036000830152612add81612aa1565b9050919050565b6000612af083856123c6565b9350612afd8385846127d0565b612b0683612401565b840190509392505050565b60006060820190508181036000830152612b2c81888a612ae4565b90508181036020830152612b41818688612ae4565b90508181036040830152612b56818486612ae4565b9050979650505050505050565b7f4e487b7100000000000000000000000000000000000000000000000000000000600052602260045260246000fd5b60006002820490506001821680612baa57607f821691505b602082108103612bbd57612bbc612b63565b5b50919050565b7f43616e206f6e6c792061737369676e20746f204d616e61676572730000000000600082015250565b6000612bf9601b836123c6565b9150612c0482612bc3565b602082019050919050565b60006020820190508181036000830152612c2881612bec565b9050919050565b7f4f6e6c7920636c6f736564206f72207265736f6c766564207469636b6574732060008201527f63616e2062652072656f70656e65640000000000000000000000000000000000602082015250565b6000612c8b602f836123c6565b9150612c9682612c2f565b604082019050919050565b60006020820190508181036000830152612cba81612c7e565b9050919050565b7f436f6d6d656e742063616e6e6f7420626520656d707479000000000000000000600082015250565b6000612cf76017836123c6565b9150612d0282612cc1565b602082019050919050565b60006020820190508181036000830152612d2681612cea565b9050919050565b60008190508160005260206000209050919050565b60006020601f8301049050919050565b600082821b905092915050565b600060088302612d8f7fffffffffffffffffffffffffffffffffffffffffffffffffffffffffffffffff82612d52565b612d998683612d52565b95508019841693508086168417925050509392505050565b6000819050919050565b6000612dd6612dd1612dcc84611f23565b612db1565b611f23565b9050919050565b6000819050919050565b612df083612dbb565b612e04612dfc82612ddd565b848454612d5f565b825550505050565b600090565b612e19612e0c565b612e24818484612de7565b505050565b5b81811015612e4857612e3d600082612e11565b600181019050612e2a565b5050565b601f821115612e8d57612e5e81612d2d565b612e6784612d42565b81016020851015612e76578190505b612e8a612e8285612d42565b830182612e29565b50505b505050565b600082821c905092915050565b6000612eb060001984600802612e92565b1980831691505092915050565b6000612ec98383612e9f565b9150826002028217905092915050565b612ee2826123bb565b67ffffffffffffffff811115612efb57612efa612724565b5b612f058254612b92565b612f10828285612e4c565b600060209050601f831160018114612f435760008415612f31578287015190505b612f3b8582612ebd565b865550612fa3565b601f198416612f5186612d2d565b60005b82811015612f7957848901518255600182019150602085019450602081019050612f54565b86831015612f965784890151612f92601f891682612e9f565b8355505b6001600288020188555050505b50505050505056fea2646970667358221220147bc26ef352e65c5cc0c10a9ce61f6b42e258a89d337dcd57bf75869fbd0c1564736f6c63430008130033",
  "immutableReferences": {},
  "source": "// SPDX-License-Identifier: MIT\r\npragma solidity ^0.8.19;\r\n\r\ncontract BlockDesk {\r\n    enum TicketStatus { Open, InProgress, Resolved, Closed }\r\n    enum UserRole { User, Manager }\r\n    \r\n    // Packed Struct + No Strings\r\n    // This struct now only uses 3 Storage Slots (down from ~10+)\r\n    struct Ticket {\r\n        // SLOT 1 (20 + 8 + 1 = 29 bytes) \r\n        address creator;      // 20 bytes \r\n        uint64 createdAt;     // 8 bytes \r\n        TicketStatus status;  // 1 byte \r\n        \r\n        // SLOT 2 (20 + 8 = 28 bytes) \r\n        address assignedTo;   // 20 bytes\r\n        uint64 updatedAt;     // 8 bytes\r\n\r\n        // SLOT 3 (32 bytes) \r\n        uint256 id;           // 32 bytes\r\n    }\r\n    \r\n    struct Comment {\r\n        uint256 id;\r\n        uint256 ticketId;\r\n        address author;\r\n        string content; // Comments still kept on-chain for now, or could be optimized similarly\r\n        uint256 createdAt;\r\n    }\r\n    \r\n    mapping(uint256 => Ticket) public tickets;\r\n    mapping(address => UserRole) public userRoles;\r\n    mapping(uint256 => Comment[]) public ticketComments;\r\n\r\n    uint256 public nextTicketId = 1;\r\n    uint256 public nextCommentId = 1;\r\n\r\n    // Store data in Events instead of State\r\n    event TicketCreated(\r\n        uint256 indexed ticketId, \r\n        address indexed creator, \r\n        string title, \r\n        string description, \r\n        string attachmentHash\r\n    );\r\n    \r\n    event StatusUpdated(uint256 indexed ticketId, TicketStatus status, address indexed updater);\r\n    event TicketAssigned(uint256 indexed ticketId, address indexed assignee, address indexed assigner);\r\n    event TicketReopened(uint256 indexed ticketId, address indexed reopener);\r\n    event CommentAdded(uint256 indexed ticketId, uint256 indexed commentId, address indexed author);\r\n\r\n    constructor() {\r\n        userRoles[msg.sender] = UserRole.Manager;\r\n    }\r\n    \r\n    modifier onlyManager() {\r\n        require(userRoles[msg.sender] == UserRole.Manager, \"Not authorized: Manager only\");\r\n        _;\r\n    }\r\n    \r\n    // Use 'calldata' instead of 'memory' for read-only string args\r\n    function createTicket(\r\n        string calldata title,\r\n        string calldata description,\r\n        string calldata attachmentHash\r\n    ) external returns (uint256) {\r\n        uint256 ticketId = nextTicketId++;\r\n        \r\n        // Write only essential data to storage\r\n        tickets[ticketId] = Ticket({\r\n            creator: msg.sender,\r\n            createdAt: uint64(block.timestamp),\r\n            status: TicketStatus.Open,\r\n            assignedTo: address(0),\r\n            updatedAt: uint64(block.timestamp),\r\n            id: ticketId\r\n        });\r\n\r\n        // Emit heavy data to the logs\r\n        emit TicketCreated(ticketId, msg.sender, title, description, attachmentHash);\r\n        \r\n        return ticketId;\r\n    }\r\n    \r\n    function updateStatus(uint256 ticketId, TicketStatus status) external {\r\n        require(tickets[ticketId].id != 0, \"Ticket does not exist\");\r\n        require(\r\n            tickets[ticketId].creator == msg.sender ||\r\n            tickets[ticketId].assignedTo == msg.sender ||\r\n            userRoles[msg.sender] == UserRole.Manager,\r\n            \"Not authorized\"\r\n        );\r\n\r\n        tickets[ticketId].status = status;\r\n        tickets[ticketId].updatedAt = uint64(block.timestamp);\r\n        \r\n        emit StatusUpdated(ticketId, status, msg.sender);\r\n    }\r\n    \r\n    function assignTicket(uint256 ticketId, address assignee) external onlyManager {\r\n        require(tickets[ticketId].id != 0, \"Ticket does not exist\");\r\n        require(userRoles[assignee] == UserRole.Manager, \"Can only assign to Managers\");\r\n        \r\n        tickets[ticketId].assignedTo = assignee;\r\n        tickets[ticketId].status = TicketStatus.InProgress;\r\n        tickets[ticketId].updatedAt = uint64(block.timestamp);\r\n        \r\n        emit TicketAssigned(ticketId, assignee, msg.sender);\r\n    }\r\n\r\n    function resolveTicket(uint256 ticketId) external onlyManager {\r\n        require(tickets[ticketId].id != 0, \"Ticket does not exist\");\r\n        \r\n        tickets[ticketId].status = TicketStatus.Resolved;\r\n        tickets[ticketId].updatedAt = uint64(block.timestamp);\r\n        \r\n        emit StatusUpdated(ticketId, TicketStatus.Resolved, msg.sender);\r\n    }\r\n\r\n    function closeTicket(uint256 ticketId) external onlyManager {\r\n        require(tickets[ticketId].id != 0, \"Ticket does not exist\");\r\n        \r\n        tickets[ticketId].status = TicketStatus.Closed;\r\n        tickets[ticketId].updatedAt = uint64(block.timestamp);\r\n        \r\n        emit StatusUpdated(ticketId, TicketStatus.Closed, msg.sender);\r\n    }\r\n    \r\n    function reopenTicket(uint256 ticketId) external onlyManager {\r\n        require(tickets[ticketId].id != 0, \"Ticket does not exist\");\r\n        require(\r\n            tickets[ticketId].status == TicketStatus.Closed || \r\n            tickets[ticketId].status == TicketStatus.Resolved,\r\n            \"Only closed or resolved tickets can be reopened\"\r\n        );\r\n\r\n        // Set status to InProgress (Index 1) instead of Open\r\n        tickets[ticketId].status = TicketStatus.InProgress;\r\n        \r\n        // Auto-assign to the Manager reopening it\r\n        tickets[ticketId].assignedTo = msg.sender; \r\n        \r\n        tickets[ticketId].updatedAt = uint64(block.timestamp);\r\n        \r\n        // Emit events so the frontend knows what happened\r\n        emit TicketReopened(ticketId, msg.sender);\r\n        emit TicketAssigned(ticketId, msg.sender, msg.sender);\r\n    }\r\n    \r\n    function addComment(uint256 ticketId, string memory content) external {\r\n        require(tickets[ticketId].id != 0, \"Ticket does not exist\");\r\n        require(bytes(content).length > 0, \"Comment cannot be empty\");\r\n        \r\n        uint256 commentId = nextCommentId++;\r\n        \r\n        Comment memory newComment = Comment({\r\n            id: commentId,\r\n            ticketId: ticketId,\r\n            author: msg.sender,\r\n            content: content,\r\n            createdAt: block.timestamp\r\n        });\r\n        \r\n        ticketComments[ticketId].push(newComment);\r\n        emit CommentAdded(ticketId, commentId, msg.sender);\r\n    }\r\n    \r\n    function getTicketComments(uint256 ticketId) external view returns (Comment[] memory) {\r\n        require(tickets[ticketId].id != 0, \"Ticket does not exist\");\r\n        return ticketComments[ticketId];\r\n    }\r\n    \r\n    function setUserRole(address user, UserRole role) external onlyManager {\r\n        userRoles[user] = role;\r\n    }\r\n    \r\n    // This no longer returns title/description. \r\n    // Frontend must fetch these from 'TicketCreated' events.\r\n    function getTicket(uint256 ticketId) external view returns (Ticket memory) {\r\n        require(tickets[ticketId].id != 0, \"Ticket does not exist\");\r\n        return tickets[ticketId];\r\n    }\r\n\r\n    function getAllTickets() external view returns (Ticket[] memory) {\r\n        uint256 count = nextTicketId - 1;\r\n        Ticket[] memory allTickets = new Ticket[](count);\r\n        \r\n        for (uint256 i = 1; i <= count; i++) {\r\n            allTickets[i - 1] = tickets[i];\r\n        }\r\n        \r\n        return allTickets;\r\n    }\r\n}",
  "sourcePath": "C:\\Users\\Chris\\BlockDesk\\blockchain\\contracts\\BlockDesk.sol",
  "compiler": {
    "name": "solc",
    "version": "0.8.19+commit.7dd6d404.Emscripten.clang"
  },
  "schemaVersion": "3.4.16",
  "updatedAt": "2025-11-30T06:30:34.989Z",
  "networkType": "ethereum",
  "devdoc": {
    "kind": "dev",
    "methods": {},
    "version": 1
  },
  "userdoc": {
    "kind": "user",
    "methods": {},
    "version": 1
  }
}